:1000000007C1000035C1000033C1000031C100004C
:100010002FC100002DC100002BC1000029C100002C
:1000200027C1000025C1000023C1000021C100003C
:100030001FC100001DC100001BC1000019C100004C
:1000400017C100009FC5000013C1000011C10000CE
:100050000FC100000DC100000BC10000C2C40000B0
:1000600007C1000005C1000003C1000001C100007C
:10007000FFC00000FDC00000FBC00000F9C0000090
:1000800054C50000F5C00000F3C00000F1C000003E
:10009000EFC00000EDC00000EBC00000E9C00000B0
:1000A000E7C00000E5C0000013C50000E1C000008B
:1000B000DFC00000DDC00000DBC00000DCC40000C9
:1000C000D7C00000D5C00000D3C00000D1C00000E0
:1000D000CFC00000CDC00000CBC00000C9C00000F0
:1000E000C7C000005401570146014A0150018E016A
:1000F0005B015F01650169016D01730177017B019E
:100100008E0181018501890100002200250028005F
:100110002B002E003100340002010000050108010F
:100120000B01000020002300260029002C002F00D6
:100130003200000100000301060109010505050563
:10014000070508080808020202020A0A080804044F
:10015000040401010101010101010303030303037D
:100160000303040707070C0C0C0C0C0C0C0C02020C
:10017000020206060606060606060B0B0B0B0B0B09
:100180000B0B010210202008081020401020408096
:10019000020102010804020101020408102040804B
:1001A00080402010080402018004020180402010D9
:1001B0000804020108040201010204081020408022
:1001C000010204081020408000000A0B02090C0DF7
:1001D0000E080703040100000000000000000000FA
:1001E000000000000000000000000000000000000F
:1001F00000000000121110000000000000000000CC
:1002000000000000000000000000000000004409A1
:1002100011241FBECFEFD1E2DEBFCDBF00E00CBF87
:1002200012E0A0E0B2E0EAE5F6E100E00BBF02C0B8
:1002300007900D92A237B107D9F723E0A2E7B2E009
:1002400001C01D92A839B207E1F711E0C8E0D1E082
:1002500000E006C021970109802FFE010E94230BB8
:10026000C730D10780E00807A9F7B9D40C942B0B4D
:10027000C7CE90E0FC013197E231F10508F04EC0A5
:100280008827EE58FF4F8F4F0C94230B80918000EE
:100290008F7703C0809180008F7D809380000895C8
:1002A00080918000877FF9CF84B58F7702C084B5B5
:1002B0008F7D84BD08958091B0008F7703C08091B9
:1002C000B0008F7D8093B0000895809190008F776B
:1002D00007C0809190008F7D03C080919000877F40
:1002E0008093900008958091A0008F7707C080913F
:1002F000A0008F7D03C08091A000877F8093A00025
:100300000895809120018F7707C0809120018F7D13
:1003100003C080912001877F809320010895CF93AF
:10032000DF93282F30E0F901E853FE4F8491F90163
:10033000EE57FE4FD491F901E45CFE4FC491CC23FB
:1003400089F0811196DFEC2FF0E0EE0FFF1FEE5DDC
:10035000FE4FA591B491EC91ED2381E090E021F462
:1003600080E002C080E090E0DF91CF9108951F937C
:10037000CF93DF93282F30E0F901E853FE4F8491AB
:10038000F901EE57FE4FD491F901E45CFE4FC491A0
:10039000CC23C1F0162F81116CDFEC2FF0E0EE0FB3
:1003A000FF1FE85FFE4FA591B4918FB7F89411112C
:1003B00005C09C91ED2FE095E92302C0EC91ED2B57
:1003C000EC938FBFDF91CF911F910895863308F092
:1003D000865390917B00282F2870977F922B9093C3
:1003E0007B008770806480937C0080917A008064B9
:1003F00080937A0080917A0086FDFCCF809178000E
:100400002091790090E0922B08953FB7F894809165
:10041000240390912503A0912603B091270326B5CC
:10042000A89B05C02F3F19F00196A11DB11D3FBF2C
:10043000BA2FA92F982F8827820F911DA11DB11DBA
:10044000BC01CD0142E0660F771F881F991F4A95B6
:10045000D1F708958F929F92AF92BF92CF92DF9281
:10046000EF92FF926B017C01D0DF4B015C01C11464
:10047000D104E104F104E9F0C8DFDC01CB01881903
:100480009909AA09BB09883E9340A105B10578F3F3
:1004900021E0C21AD108E108F10888EE880E83E055
:1004A000981EA11CB11CC114D104E104F10421F770
:1004B000DECFFF90EF90DF90CF90BF90AF909F90F6
:1004C0008F9008952FB7F8946091200370912103C5
:1004D00080912203909123032FBF0895CF92DF9242
:1004E000EF92FF92CF93DF93EC01603282E07807C6
:1004F0000CF03BC077FD06C0653B71052CF064EB4A
:1005000070E002C060E070E0898128E830E06901B5
:10051000C81AD10887FDD394CC0CDD1CCC0CDD1C93
:100520000D2C000CEE08FF088A8128E532E0281B1C
:10053000310987FD3395220F331F220F331FC90165
:10054000330FAA0BBB0B9C01AD012C193D094E09C1
:100550005F09DB0122D724EB30E040E050E0F7D622
:10056000C20ED31EE41EF51EB6018881803380F5CD
:10057000998148E850E0491B510997FD5395440F74
:10058000551F440F551F6417750784F09A8128E59D
:1005900032E0291B310997FD3395220F331F220FBB
:1005A000331FAB01261737070CF4A901425051093C
:1005B000440F551F2FB7F89490E0FC01EE0FFF1F7A
:1005C0008E0F9F1FFC01E157FD4F528341832FBFC8
:1005D000DF91CF91FF90EF90DF90CF900895FC01D5
:1005E00090918E029033A0F481E0890F80938E0267
:1005F0009083892F90E0FC01EE0FFF1F8E0F9F1F4D
:10060000FC01E157FD4F88EB9BE0928381830895C5
:100610008FEF80830895CF92DF92EF92FF920F9336
:100620001F93CF93DF936C018B017A01EC01C657C6
:10063000DD4F888187FF04C0FB011182108224C036
:100640008CE08C9D90018D9D300D11248881A90135
:10065000480F511D87FD5A9580918E0290E04817F2
:10066000590794F48881A901480F511D87FD5A95B7
:10067000CA01FA01EE0FFF1F8E0F9F1FFC01E15709
:10068000FD4F808186FD19C088818F5F88838CE053
:100690008C9D90018D9D300D11248881A901480FFA
:1006A000511D87FD5A9580918E0290E04817590799
:1006B000B4F488818C303CF112C08881280F311D40
:1006C00087FD3A95F901EE0FFF1F2E0F3F1FF9012D
:1006D000E157FD4F808160E08F7349DED5CFF8018F
:1006E00080819181049680349C4918F480E49CE9CF
:1006F00004C0F801808191810496F7019183808381
:100700008FEF888344C0F801408151818881B9010D
:10071000680F711D87FD7A95CB01FB01EE0FFF1F5E
:100720008E0F9F1FFC01E157FD4F81819281840F45
:10073000951FF701918380838881A901480F511D7E
:1007400087FD5A95CA01FA01EE0FFF1F8E0F9F1FFA
:10075000FC01E157FD4F808186FF19C08881280F79
:10076000311D87FD3A95F901EE0FFF1F2E0F3F1F38
:10077000F901E157FD4F808161E08F73DF91CF91E7
:100780001F910F91FF90EF90DF90CF90F0CDDF9110
:10079000CF911F910F91FF90EF90DF90CF90089530
:1007A0008F929F92AF92BF92CF92DF92EF92FF9281
:1007B0004B015C0187DE6B017C01681579058A05B8
:1007C0009B05B0F4C501B401B0D620E030E040E0B4
:1007D0005FE41AD67ED64B015C01C701B601A5D6EF
:1007E00020E030E040E05FE410D673D66B017C017E
:1007F000C701B601681979098A099B09FF90EF9032
:10080000DF90CF90BF90AF909F908F9008950F93FF
:100810001F93CF93DF9361E08DE1A9DD61E08EE16D
:10082000A6DD61E08FE1A3DD61E080912C03909172
:100830002D03892B09F060E089E299DD61E0809168
:100840002A0390912B03892B09F060E08BE28FDD66
:1008500061E08091280390912903892B09F060E0E1
:100860008AE285DDC0914003D091410361E0209789
:1008700009F060E08FE27BDD6C2F84E378DDC091CE
:100880004203D091430361E0209709F060E080E3E8
:100890006EDD6C2F83E36BDDC0914403D091450383
:1008A00061E0209709F060E081E361DD6C2F82E375
:1008B0005EDD60E080E25BDDC0E3D2E000E412E0F8
:1008C00068812296F80180810E5F1F4F50DDF2E0B3
:1008D000C034DF07A9F7DF91CF911F910F910895E1
:1008E000CF92DF92EF92FF920F931F93CF93DF93FC
:1008F000CDB7DEB7E0970FB6F894DEBF0FBECDBF21
:1009000080E3E0E0F2E0DE01119601900D928A951D
:10091000E1F7D8DD7B018CE102DD8C01C12CD12C0B
:100920000130110509F03EC0860183E0000F111F60
:100930008A95E1F781E090E08C0F9D1F080F191F49
:10094000F80162818FE213DDF801648180E30FDD3D
:10095000F801668181E30BDDB7010F2C000C880BD9
:10096000990B1EDFF801208131818901330F220BA1
:10097000330B061717072807390718F4FFEFCF1AAC
:10098000DF0A86E0C816D10421F49CDD7B01C12C6E
:10099000D12C8CE1C4DC8C016AE070E080E090E056
:1009A00059DDBECF012B49F48CE1B9DC8C016AE042
:1009B00070E080E090E04EDDF5CF29DFB701FF0C5D
:1009C000880B990BE0960FB6F894DEBF0FBECDBF33
:1009D000DF91CF911F910F91FF90EF90DF90CF901B
:1009E000DFCE1F920F920FB60F9211242F933F93D9
:1009F0008F939F93AF93BF93809120039091210396
:100A0000A0912203B091230330911F0323E0230F11
:100A10002D3720F40196A11DB11D05C026E8230F36
:100A20000296A11DB11D20931F0380932003909374
:100A30002103A0932203B093230380912403909178
:100A40002503A0912603B09127030196A11DB11D96
:100A50008093240390932503A0932603B093270348
:100A6000BF91AF919F918F913F912F910F900FBEAA
:100A70000F901F9018951F920F920FB60F9211248E
:100A80000BB60F922F933F934F935F936F937F9388
:100A90008F939F93AF93BF93EF93FF9348E251E0FF
:100AA00064E271E080E090E0B6DDFF91EF91BF91EC
:100AB000AF919F918F917F916F915F914F913F91F6
:100AC0002F910F900BBE0F900FBE0F901F90189597
:100AD0001F920F920FB60F9211240BB60F922F9305
:100AE0003F934F935F936F937F938F939F93AF93B6
:100AF000BF93EF93FF9348EA50E064EA70E083E02D
:100B000090E089DDFF91EF91BF91AF919F918F911F
:100B10007F916F915F914F913F912F910F900BBEFD
:100B20000F900FBE0F901F9018951F920F920FB647
:100B30000F9211240BB60F922F933F934F935F9315
:100B40006F937F938F939F93AF93BF93EF93FF9395
:100B500048E950E064E970E082E090E05CDDFF91FC
:100B6000EF91BF91AF919F918F917F916F915F9125
:100B70004F913F912F910F900BBE0F900FBE0F9092
:100B80001F9018951F920F920FB60F9211240BB65B
:100B90000F922F933F934F935F936F937F938F9316
:100BA0009F93AF93BF93EF93FF9348E850E064E8BF
:100BB00070E081E090E02FDDFF91EF91BF91AF9168
:100BC0009F918F917F916F915F914F913F912F9165
:100BD0000F900BBE0F900FBE0F901F90189578943A
:100BE00084B5826084BD84B5816084BD85B5826032
:100BF00085BD85B5816085BD80916E0081608093E3
:100C00006E0010928100809181008260809381004B
:100C1000809181008160809381008091800081605B
:100C2000809380008091B10084608093B1008091B6
:100C3000B00081608093B0008091910082608093C9
:100C4000910080919100816080939100809190004B
:100C50008160809390008091A10082608093A100C8
:100C60008091A10081608093A1008091A0008160AB
:100C70008093A00080912101826080932101809166
:100C80002101816080932101809120018160809306
:100C9000200180917A00846080937A0080917A00AC
:100CA000826080937A0080917A00816080937A00DC
:100CB00080917A00806880937A001092C10068EE7B
:100CC00073E080E090E0C6DBC3E0D0E061E08DE15E
:100CD0004EDB69E170E080E090E0BCDB61E08EE13A
:100CE00046DB69E170E080E090E0B4DB61E08FE139
:100CF0003EDB69E170E080E090E0ACDB60E08DE13C
:100D000036DB69E170E080E090E0A4DB60E08EE13A
:100D10002EDB69E170E080E090E09CDB60E08FE139
:100D200026DB69E170E080E090E094DB219771F6CA
:100D30006AEF70E080E090E08DDB03E010E061E0BE
:100D400080E215DB6AE070E080E090E083DBC0E4E5
:100D5000D2E08881229661E00ADB6AE070E080E000
:100D600090E078DB22E0C035D20799F760E080E2BE
:100D7000FEDA6AE070E080E090E06CDBC0E4D2E094
:100D80008881229660E0F3DA6AE070E080E090E02B
:100D900061DB82E0C035D80799F70150110979F677
:100DA0006AEF70E080E090E055DBC3E0D0E061E006
:100DB00089E2DDDA69E170E080E090E04BDB61E040
:100DC0008BE2D5DA69E170E080E090E043DB61E03E
:100DD0008AE2CDDA69E170E080E090E03BDB60E040
:100DE00089E2C5DA69E170E080E090E033DB60E041
:100DF0008BE2BDDA69E170E080E090E02BDB60E03F
:100E00008AE2B5DA69E170E080E090E023DB2197C7
:100E100071F66AEF70E080E090E01CDBC3E0D0E0A8
:100E200061E081E3A4DA6AEF70E080E090E012DB39
:100E300061E080E39CDA69E170E080E090E00ADB49
:100E400061E08FE294DA69E170E080E090E002DB3B
:100E500060E081E38CDA69E170E080E090E0FADA4A
:100E600060E080E384DA69E170E080E090E0F2DA4B
:100E700060E08FE27CDA69E170E080E090E0EADA3D
:100E8000219771F66AEF70E080E090E0E3DA03E02A
:100E900010E060E08DE16BDA60E08EE168DA60E03E
:100EA0008FE165DA60E080E262DAC0E4D2E0888156
:100EB000229660E05CDAE2E0C035DE07C1F760E070
:100EC00089E255DA60E08BE252DA60E08AE24FDADA
:100ED00060E081E34CDA60E080E349DA60E08FE2D1
:100EE00046DA6AEF70E080E090E0B4DA61E08DE12C
:100EF0003EDA61E08EE13BDA61E08FE138DA61E011
:100F000080E235DAC0E4D2E08881229661E02FDA0F
:100F1000F2E0C035DF07C1F761E089E228DA61E07D
:100F20008BE225DA61E08AE222DA61E081E31FDA0E
:100F300061E080E31CDA61E08FE219DA6AEF70E0C9
:100F400080E090E087DA0150110909F0A2CFBADA07
:100F50006B017C01109245031092440310924303ED
:100F600010924203109241031092400350DCB8DC0F
:100F70007EE2272E73E0372E00E612E0812C912CC2
:100F80005401C0E0D0E09EDA2B013C01C301B20164
:100F900007DC603D77408105910510F5F8018081FF
:100FA00015DA092E000CAA0BBB0B880E991EAA1E7F
:100FB000BB1E2196C701B601F3DB28EC30E040E010
:100FC00050E0F1D1CA01B9016170772788279927CC
:100FD00089E2CDD962E370E080E090E03BDAD6CFE1
:100FE0009E010D2E000C440B550BC501B401DBD145
:100FF000F101219331931F010E5F1F4FF0E42F1673
:10100000F3E03F0609F0BFCF81E090E090932D031D
:1010100080932C0361E089E2AAD962DC66E5262E82
:1010200063E0362E00E612E0812C912C54014ADA5E
:101030002B013C01C301B201B3DB603D7740810568
:10104000910510F5F8018081C1D9092E000CAA0B79
:10105000BB0B880E991EAA1EBB1E2196C701B601A6
:101060009FDB28EC30E040E050E09DD1CA01B9019F
:1010700061707727882799278BE279D962E370E03E
:1010800080E090E0E7D9D6CFC501B4019E010D2ED6
:10109000000C440B550B87D1F101219331931F01B3
:1010A0000E5F1F4FF8E62F16F3E03F0609F0BFCFA3
:1010B00081E090E090932B0380932A0361E08BE220
:1010C00056D90EDC00E612E058E6252E53E0352E08
:1010D000812C912C5401F6D92B013C01C301B201A2
:1010E0005FDB603D77408105910510F5F801808157
:1010F0006DD9092E000CAA0BBB0B880E991EAA1ED7
:10110000BB1E2196C701B6014BDB28EC30E040E066
:1011100050E049D1CA01B901617077278827992722
:101120008AE225D962E370E080E090E093D9D6CFDF
:10113000C501B4019E010D2E000C440B550B33D19B
:10114000F101219331931F010E5F1F4FF8E72F1616
:10115000F3E03F0609F0BFCFC1E0D0E0D093290310
:10116000C093280361E08AE202D9BADBD09341033D
:10117000C09340034CDBC0E5D2E006E413E0888175
:101180002296CDD8F801819391938F01F2E0C03679
:10119000DF07A9F7A5DB40E0E42E40E0F42E8CE168
:1011A000BED89093970380939603892BC9F48AD96C
:1011B0004B015C018CE1B3D8EC01209731F462E380
:1011C00070E080E090E046D9F8CFC501B401E8DADC
:1011D0006093920370939303809394039093950389
:1011E0008EE3F4D820916603309167032A503109C9
:1011F000281739070CF03CC038E6C32E33E0D32E55
:1012000000E612E0C0E0D0E0F80180810E5F1F4FE1
:10121000DDD8F601219131916F012A50310928174B
:10122000390734F02196C830D10571F7C9E0D0E014
:10123000D0939103C0939003C930D105C9F0CE017A
:10124000880F991FC80FD91FC858DC4F6AEA70E091
:10125000CE0144D964EF71E080E090E0FBD865E016
:1012600070E0CE013BD964EF71E080E090E0F2D80D
:1012700064E170E080E090E0EDD8E114F10409F45D
:101280008ECF0E9400008BCF87E892E0A8D984E837
:1012900092E0A5D981E892E0A2D98EE792E09FD9A9
:1012A0008BE792E09CD988E792E099D985E792E0B4
:1012B00096D982E792E093D9E8E7F3E0809187023C
:1012C00090918802A091890280839183A28380916A
:1012D000840290918502A091860283839483A583E2
:1012E0008091810290918202A091830286839783EC
:1012F000A08780917E0290917F02A09180028187D9
:101300009287A38780917B0290917C02A0917D02BD
:1013100084879587A6878091780290917902A09121
:101320007A028787908BA18B8091750290917602CB
:10133000A0917702828B938BA48B80917202909103
:101340007302A0917402858B968BA78B0895052E4E
:1013500097FB16F400940FD057FD05D024D007FC5E
:1013600002D046F408C050954095309521953F4FE6
:101370004F4F5F4F089590958095709561957F4F81
:101380008F4F9F4F089531D0A59F900DB49F900D22
:10139000A49F800D911D11240895B7FFF4CFF3DFB2
:1013A000821B930B0895A1E21A2EAA1BBB1BFD0101
:1013B0000DC0AA1FBB1FEE1FFF1FA217B307E40734
:1013C000F50720F0A21BB30BE40BF50B661F771F8C
:1013D000881F991F1A9469F760957095809590956C
:1013E0009B01AC01BD01CF010895A29FB001B39F45
:1013F000C001A39F700D811D1124911DB29F700D1E
:10140000811D1124911D08955058BB27AA270ED085
:10141000E0C0D1D030F0D6D020F031F49F3F11F4AD
:101420001EF4C6C00EF4E095E7FBBCC0E92FE2D085
:1014300080F3BA17620773078407950718F071F4F1
:101440009EF5FAC00EF4E0950B2EBA2FA02D0B01DD
:10145000B90190010C01CA01A0011124FF27591BF9
:1014600099F0593F50F4503E68F11A16F040A22FFF
:10147000232F342F4427585FF3CF46953795279570
:10148000A795F0405395C9F77EF41F16BA0B620B6F
:10149000730B840BBAF09150A1F0FF0FBB1F661FB6
:1014A000771F881FC2F70EC0BA0F621F731F841FF9
:1014B00048F4879577956795B795F7959E3F08F01F
:1014C000B3CF9395880F08F09927EE0F97958795DE
:1014D000089598D088F09F5790F0B92F9927B75169
:1014E000A0F0D1F0660F771F881F991F1AF0BA95E8
:1014F000C9F712C0B13081F09FD0B1E008959CC00F
:10150000672F782F8827B85F39F0B93FCCF38695DD
:1015100077956795B395D9F73EF49095809570953A
:1015200061957F4F8F4F9F4F0895E89409C097FBB7
:101530003EF490958095709561957F4F8F4F9F4FAA
:101540009923A9F0F92F96E9BB279395F6958795EE
:1015500077956795B795F111F8CFFAF4BB0F11F4B1
:1015600060FF1BC06F5F7F4F8F4F9F4F16C0882358
:1015700011F096E911C0772321F09EE8872F762F8E
:1015800005C0662371F096E8862F70E060E02AF0CF
:101590009A95660F771F881FDAF7880F96958795BB
:1015A00097F9089597F99F6780E870E060E00895E3
:1015B0009FEF80EC089500240A941616170618066B
:1015C0000906089500240A94121613061406050647
:1015D0000895092E0394000C11F4882352F0BB0FD8
:1015E00040F4BF2B11F460FF04C06F5F7F4F8F4F3B
:1015F0009F4F089557FD9058440F551F59F05F3F76
:1016000071F04795880F97FB991F61F09F3F79F024
:1016100087950895121613061406551FF2CF4695A6
:10162000F1DF08C0161617061806991FF1CF869528
:101630007105610508940895E894BB27662777270C
:10164000CB0197F90895EE0FFF1F881F8BBF0790FE
:0A165000F691E02D1994F894FFCFF5
:10165A006400000001000100C80001000000010050
:10166A002C01010001000000F40101000100010049
:10167A00BC02010001000000840301000100010016
:10168A000000000000000000000000000000000050
:10169A00210022002300240025002600270028001C
:1016AA00180019001A001B00140015001600170074
:1016BA003D003C003B003A00390038003700360054
:0216CA003E00E0
:00000001FF
